:100000000C942A000C94DA0C0C9447000C944700D2
:100010000C9447000C9447000C9447000C948D0FEF
:100020000C9447000C9447000C9447000C94470034
:100030000C9447000C9447000C9447000C94470024
:100040000C9447000C9447000C9447000C94470014
:100050000C94470011241FBECFE5D8E0DEBFCDBF12
:1000600011E0A0E6B0E0ECEEF8E402C005900D92DD
:10007000A83DB107D9F718E0A8EDB1E001C01D9285
:10008000A733B107E1F70E941F0E0C9474240C945F
:100090000000EF92FF920F931F937B018C0120E0F1
:1000A00030E040E05FE40E94C50388238CF0C80183
:1000B000B70120E030E040E05FE40E94C1010E940F
:1000C00053049B01AC01205030404040504806C0D2
:1000D000C801B7010E9453049B01AC01B901CA01D8
:1000E0001F910F91FF90EF900895A0E0B0E0EBE733
:1000F000F0E00C942D24DC012B01FA019C9192304C
:1001000008F439C1EB018881823008F433C194309E
:1001100069F4843009F02FC111969C91119789815F
:10012000981709F428C1ACECB0E025C1843009F47B
:1001300021C18230A9F4923009F01DC19A01AD01AC
:1001400088E0EA010990AE01E90109929E0181501F
:10015000C1F7E201898111969C918923818308C1AD
:10016000923009F407C112962D903C901397EB0141
:100170008A819B811496AD90BD90CD90DC901797AD
:10018000EC80FD800E811F819101281B390BB90184
:1001900037FF04C066277727621B730B6032710537
:1001A0000CF061C0121613066CF537014801062EDB
:1001B00004C096948794779467940A94D2F721E0C8
:1001C00030E040E050E004C0220F331F441F551FB1
:1001D0006A95D2F721503040404050402E213F21B7
:1001E00040235123211531054105510521F021E01E
:1001F00030E040E050E079018A01E628F72808293C
:1002000019293CC0232BD1F1260E371E350146019A
:10021000062E04C096948794779467940A94D2F734
:1002200021E030E040E050E004C0220F331F441FC3
:10023000551F6A95D2F721503040404050402A2146
:100240003B214C215D21211531054105510521F04E
:1002500021E030E040E050E059016A01A628B728CB
:10026000C828D9280BC0821593052CF01C01AA249C
:10027000BB24650103C0EE24FF24870111969C91E5
:10028000D20111968C91981709F445C0992339F041
:10029000A80197012A193B094C095D0906C0A6016E
:1002A00095012E193F09400B510B57FD08C01182D3
:1002B0003382228224833583468357831DC081E0A5
:1002C00081833382228288279927DC01821B930B4A
:1002D000A40BB50B84839583A683B7830DC0220F2F
:1002E000331F441F551F24833583468357838281E0
:1002F000938101979383828324813581468157813D
:10030000DA01C9010197A109B1098F5F9F4FAF4F72
:10031000BF4328F30BC0918333822282EA0CFB1C7B
:100320000C1D1D1DE482F5820683178383E0808304
:10033000248135814681578157FF1AC0C901AA27F8
:1003400097FDA095BA2F81709070A070B0705695EF
:10035000479537952795822B932BA42BB52B848318
:100360009583A683B7838281938101969383828349
:10037000DF0101C0D201CD01CDB7DEB7E2E10C94BF
:100380004924A0E2B0E0E7ECF1E00C943924698361
:100390007A838B839C832D833E834F835887E9E048
:1003A000EE2EF12CEC0EFD1ECE010196B7010E943F
:1003B000CB058E010F5E1F4FCE010596B8010E943E
:1003C000CB058A8991E089278A8BC701B801AE01E4
:1003D000475E5F4F0E9475000E94F604A096E6E01B
:1003E0000C945524A0E2B0E0E8EFF1E00C9439243D
:1003F00069837A838B839C832D833E834F835887C5
:10040000F9E0EF2EF12CEC0EFD1ECE010196B701A6
:100410000E94CB058E010F5E1F4FCE010596B801DD
:100420000E94CB05C701B801AE01475E5F4F0E9435
:1004300075000E94F604A096E6E00C945524A0E214
:10044000B0E0E5E2F2E00C942D2469837A838B839B
:100450009C832D833E834F835887CE010196BE0136
:10046000675F7F4F0E94CB05CE010596BE016F5E90
:100470007F4F0E94CB059985923088F08989823020
:10048000C8F0943019F4823051F404C0843029F457
:10049000923081F48CEC90E0C6C0923049F420E0B8
:1004A0009A858A89981321E02A87CE010996BBC0D4
:1004B000823049F420E09A858A89981321E02A8BBA
:1004C000CE014196B0C02D843E844F8458886D88FB
:1004D0007E888F88988CEE24FF248701AA24BB2471
:1004E000650140E050E060E070E0E0E0F0E0C10174
:1004F00081709070892BE9F0E60CF71C081D191D1E
:100500009A01AB012A0D3B1D4C1D5D1D80E090E062
:10051000A0E0B0E0E614F7040805190520F481E036
:1005200090E0A0E0B0E0BA01A901480F591F6A1F8E
:100530007B1FAA0CBB1CCC1CDD1C97FE08C081E0F5
:1005400090E0A0E0B0E0A82AB92ACA2ADB2A3196B6
:10055000E032F10549F0660C771C881C991C569412
:10056000479437942794C3CFFA85EA892B893C892D
:100570008B859C85280F391F2E5F3F4F17C0CA01FE
:1005800081709070892B61F016950795F794E79428
:1005900080E090E0A0E0B0E8E82AF92A0A2B1B2BC3
:1005A00076956795579547952F5F3F4F77FDE7CF36
:1005B0000CC0440F551F661F771F17FD4160EE0CDE
:1005C000FF1C001F111F21503040403090E05907A0
:1005D00090E0690790E4790760F32B8F3C8FDB0193
:1005E000CA018F779070A070B07080349105A1051A
:1005F000B10561F447FD0AC0E114F10401051105DC
:1006000029F0405C5F4F6F4F7F4F40781A8EFE1786
:1006100011F081E08A8F4D8F5E8F6F8F78A383E01A
:10062000898FCE0149960E94F604A096E2E10C94CF
:100630004924A8E1B0E0EFE1F3E00C9435246983AC
:100640007A838B839C832D833E834F835887B9E0C5
:10065000EB2EF12CEC0EFD1ECE010196B7010E948F
:10066000CB058E010F5E1F4FCE010596B8010E948B
:10067000CB052985223008F47EC03989323010F448
:10068000B8017CC08A859A8989278A87243011F02D
:10069000223031F4231709F06EC06CEC70E06EC0AC
:1006A000343039F41D861E861F86188A1C861B86E8
:1006B00004C0323021F484E08987B7015FC02B8504
:1006C0003C858B899C89281B390B3C872B87ED84C3
:1006D000FE840F851889AD88BE88CF88D88CEA142F
:1006E000FB040C051D0540F4EE0CFF1C001F111F40
:1006F000215030403C872B8720E030E040E050E044
:1007000080E090E0A0E0B0E460E070E0EA14FB0478
:100710000C051D0540F0282B392B4A2B5B2BEA18C2
:10072000FB080C091D09B695A79597958795EE0CC2
:10073000FF1C001F111F6F5F7F4F6F31710531F775
:10074000DA01C9018F779070A070B0708034910584
:10075000A105B10561F427FD0AC0E114F10401050A
:10076000110529F0205C3F4F4F4F5F4F20782D87B8
:100770003E874F87588BBE01675F7F4FCB010E943A
:10078000F6046896EAE00C945124A8E1B0E0EBECA2
:10079000F3E00C94392469837A838B839C832D83C3
:1007A0003E834F83588789E0E82EF12CEC0EFD1E26
:1007B000CE010196B7010E94CB058E010F5E1F4F3F
:1007C000CE010596B8010E94CB058985823040F0A4
:1007D0008989823028F0C701B8010E94430601C010
:1007E0008FEF6896E6E00C945524A8E0B0E0EBEFBC
:1007F000F3E00C9436249B01AC0183E08983DA0199
:10080000C9018827B7FD83959927AA27BB27B82E4A
:10081000211531054105510519F482E089833AC05B
:100820008823A9F0203080E0380780E0480780E87E
:10083000580729F460E070E080E09FEC30C0EE24BF
:10084000FF248701E21AF30A040B150B02C0790199
:100850008A018EE1C82ED12CDC82CB82ED82FE8211
:100860000F831887C801B7010E94A70401971816C3
:10087000190684F4082E04C0EE0CFF1C001F111F83
:100880000A94D2F7ED82FE820F831887C81AD90A1C
:10089000DC82CB82BA82CE0101960E94F6042896B1
:1008A000E9E00C945224ACE0B0E0E9E5F4E00C940B
:1008B0003D2469837A838B839C83CE010196BE019C
:1008C0006B5F7F4F0E94CB058D81823061F182305A
:1008D00050F1843021F48E81882351F12EC02F8174
:1008E000388537FD20C06E812F3131051CF066231D
:1008F000F9F023C08EE190E0821B930B29853A85A5
:100900004B855C8504C056954795379527958A9504
:10091000D2F76623B1F050954095309521953F4F21
:100920004F4F5F4F0EC020E030E040E050E009C084
:100930002FEF3FEF4FEF5FE704C020E030E040E0F3
:1009400050E8B901CA012C96E2E00C945924EF92C8
:10095000FF920F931F937B018C0180E0E81680E0EB
:10096000F80681E0080780E0180788F48FEFE816A2
:10097000F1040105110531F028F088E090E0A0E0D5
:10098000B0E017C080E090E0A0E0B0E012C080E0EE
:10099000E81680E0F80680E0080781E0180728F0F4
:1009A00088E190E0A0E0B0E004C080E190E0A0E049
:1009B000B0E020E230E040E050E0281B390B4A0B69
:1009C0005B0B04C016950795F794E7948A95D2F7C8
:1009D000F701EC52FF4F8081281B31094109510971
:1009E000C9011F910F91FF90EF900895DF92EF9250
:1009F000FF920F931F93FC01E480F580068117811D
:100A0000D1808081823048F480E090E0A0E1B0E0C5
:100A1000E82AF92A0A2B1B2BA5C0843009F49FC0B1
:100A2000823021F4EE24FF24870105C0E114F10493
:100A30000105110519F4E0E0F0E096C062817381D0
:100A40009FEF623879070CF05BC022E83FEF261B6E
:100A5000370B2A3131052CF020E030E040E050E047
:100A60002AC0B801A701022E04C076956795579554
:100A700047950A94D2F781E090E0A0E0B0E004C08E
:100A8000880F991FAA1FBB1F2A95D2F70197A109AA
:100A9000B1098E219F21A023B1230097A105B105A3
:100AA00021F081E090E0A0E0B0E09A01AB01282BBA
:100AB000392B4A2B5B2BDA01C9018F779070A0701C
:100AC000B07080349105A105B10539F427FF09C044
:100AD000205C3F4F4F4F5F4F04C0215C3F4F4F4F53
:100AE0005F4FE0E0F0E02030A0E03A07A0E04A07E6
:100AF000A0E45A0710F0E1E0F0E079018A0127C094
:100B00006038710564F5FB01E158FF4FD801C7015A
:100B10008F779070A070B07080349105A105B105F9
:100B200039F4E7FE0DC080E490E0A0E0B0E004C03E
:100B30008FE390E0A0E0B0E0E80EF91E0A1F1B1F53
:100B400017FF05C016950795F794E794319687E04F
:100B500016950795F794E7948A95D1F705C0EE248A
:100B6000FF248701EFEFF0E06E2F6795662767950A
:100B7000902F9F77D794DD24D7948E2F8695492F79
:100B8000462B582F5D29B701CA011F910F91FF9085
:100B9000EF90DF900895FC01DB01408151812281BB
:100BA000622F6F7770E0221F2227221F9381892FE7
:100BB000880F822B282F30E0991F9927991F1196B3
:100BC0009C93119721153105A9F541155105610532
:100BD000710511F482E037C082E89FEF13969C9371
:100BE0008E9312979A01AB0167E0220F331F441FC7
:100BF000551F6A95D1F783E08C930DC0220F331FE8
:100C0000441F551F12968D919C911397019713962F
:100C10009C938E931297203080E0380780E048073D
:100C200080E4580758F314962D933D934D935C93AD
:100C3000179708952F3F310579F441155105610546
:100C4000710519F484E08C93089564FF03C081E07A
:100C50008C9312C01C9210C02F57304013963C93B7
:100C60002E93129783E08C9387E0440F551F661FE5
:100C7000771F8A95D1F7706414964D935D936D93A9
:100C80007C93179708951F93DC01FB019C91923090
:100C900008F447C08081823008F443C0943051F496
:100CA00011961C91843099F58181682F70E0611B49
:100CB00071093FC0843021F0923031F48230B9F1B3
:100CC0008181882389F12DC011961C911197823062
:100CD000F1F081811817D9F412962D913C91139758
:100CE000828193818217930794F028173907BCF00B
:100CF00014968D919D910D90BC91A02D24813581EC
:100D000046815781281739074A075B0718F41123D2
:100D100041F00AC082179307A407B50740F41123D6
:100D200019F061E070E005C06FEF7FEF02C060E096
:100D300070E0CB011F9108953E983F983D9886B191
:100D4000887F86B986B1876086B9379A089597B14A
:100D5000907E97B997B1982B97B9369A349BFECF6E
:100D6000349A24B135B1C901089517B8349A369A26
:100D7000349BFECF24B135B1C90108954423D1F588
:100D80008130A1F0813030F08230E1F0833009F021
:100D900067C024C02AB381E090E002C0880F991F89
:100DA0006A95E2F7809582238ABB089527B381E094
:100DB00090E002C0880F991F6A95E2F78095822320
:100DC00087BB089524B381E090E002C0880F991F8B
:100DD0006A95E2F78095822384BB089521B381E070
:100DE00090E002C0880F991F6A95E2F780958223F0
:100DF00081BB08954130A1F5813091F0813028F018
:100E00008230C9F0833061F521C02AB381E090E0DF
:100E100002C0880F991F6A95E2F7282B2ABB089514
:100E200027B381E090E002C0880F991F6A95E2F72E
:100E3000282B27BB089524B381E090E002C0880FDF
:100E4000991F6A95E2F7282B24BB089521B381E00E
:100E500090E002C0880F991F6A95E2F7282B21BB0A
:100E600008954423D1F58130A1F0813030F08230F3
:100E7000E1F0833009F067C024C02BB381E090E03B
:100E800002C0880F991F6A95E2F7809582238BBB79
:100E9000089528B381E090E002C0880F991F6A95F9
:100EA000E2F78095822388BB089525B381E090E026
:100EB00002C0880F991F6A95E2F78095822385BB4F
:100EC000089522B381E090E002C0880F991F6A95CF
:100ED000E2F78095822382BB08954130A1F58130ED
:100EE00091F0813028F08230C9F0833061F521C063
:100EF0002BB381E090E002C0880F991F6A95E2F75A
:100F0000282B2BBB089528B381E090E002C0880F06
:100F1000991F6A95E2F7282B28BB089525B381E035
:100F200090E002C0880F991F6A95E2F7282B25BB35
:100F3000089522B381E090E002C0880F991F6A955E
:100F4000E2F7282B22BB0895FA01813049F0813065
:100F500028F0823039F08330C1F40EC089B303C069
:100F600086B301C083B390E002C0959587956A95DA
:100F7000E2F781708083089580B390E002C0959578
:100F800087956A95E2F78170808308956130A9F4AE
:100F9000813051F0813028F0823049F08330F9F40B
:100FA00009C08FEF8ABB08958FEF87BB08958FEF3D
:100FB00084BB08958FEF81BB0895662381F481304F
:100FC00049F0813028F0823039F0833041F406C096
:100FD0001ABA089517BA089514BA089511BA08955F
:100FE000813049F0813028F0823039F0833041F48B
:100FF00006C06BBB089568BB089565BB089562BBCE
:101000000895089585B7826085BF85B78E7F85BFB7
:101010008BB780648BBF089585B7826085BF85B725
:101020008E7F85BF8BB78F7B8BBF08958FB780680E
:101030008FBF08958FB78F778FBF08951F93182F95
:1010400080E067E040E00E94310780E066E040E039
:101050000E94310781E0612F0E94F00780E065E087
:1010600041E00E94310780E797E10197F1F780E0C6
:1010700065E040E00E9431071F910895813009F436
:10108000605C862F80580E941E08089581E00E94AF
:101090001E08089580E991E028EC30E0F9013197CD
:1010A000F1F70197D9F78CE30E941E0880ED97E0D5
:1010B0000197F1F78CE00E941E0881E00E941E0853
:1010C00008951F93182F80E067E041E00E943107E8
:1010D00080E066E040E00E94310781E0612F0E94DD
:1010E000F00780E065E041E00E94310780E797E18A
:1010F0000197F1F780E065E040E00E9431071F9121
:1011000008951F93CF93DF93EC0110E003C00E947A
:1011100061081F5FFE01E10FF11D80818823B9F78F
:10112000DF91CF911F9108951F93182F83E067E0FF
:1011300040E00E94310783E066E040E00E94310712
:1011400082E0612F0E94F00783E065E041E00E94A9
:10115000310780E797E10197F1F783E065E040E030
:101160000E9431071F910895813009F4605C862F39
:1011700080580E949408089581E00E949408089580
:1011800080E991E028EC30E0F9013197F1F701971F
:10119000D9F78CE30E94940880ED97E00197F1F76E
:1011A0008CE00E94940881E00E94940808951F93A7
:1011B000182F83E067E041E00E94310783E066E09A
:1011C00040E00E94310782E0612F0E94F00783E037
:1011D00065E041E00E94310780E797E10197F1F770
:1011E00083E065E040E00E9431071F9108951F935E
:1011F000CF93DF93EC0110E003C00E94D7081F5F7C
:10120000FE01E10FF11D80818823B9F7DF91CF91B5
:101210001F910895EF92FF920F931F937B018C0112
:101220006115710581059105B1F02AE030E040E0DB
:1012300050E00E940B24CA01B9010E940A09C801AA
:10124000B7012AE030E040E050E00E940B24862FF6
:10125000805D0E94D7081F910F91FF90EF90089535
:10126000DF92EF92FF920F931F93CF93DF938C0146
:10127000F62EE42ED22E862F880F880F880F805CE2
:101280000E949408C0E0D0E0F801EC0FFD1F8081BF
:101290000E94D7082196C830D105B1F78E2D6D2D4B
:1012A0000E94B4088F2D0E94D708DF91CF911F9123
:1012B0000F91FF90EF90DF90089586E880BD83E363
:1012C00089B9539A549A08955D9BFECF8CB90895BD
:1012D0005F9BFECF8CB10895DC018C915D9BFECFAE
:1012E0008CB990E008C09F5FFD01E90FF11DE0811E
:1012F0005D9BFECFECB9FD01E90FF11D80818823D4
:1013000091F70895EF92FF920F931F937B018C0149
:101310006115710581059105B1F02AE030E040E0EA
:1013200050E00E940B24CA01B9010E9482095D9B12
:10133000FECFC801B7012AE030E040E050E00E9453
:101340000B24605D6CB91F910F91FF90EF90089591
:10135000FC010FB6F8940F92208131816095709551
:1013600062237323718360830F900FBEC9010895B8
:10137000FC01808191810895BA010E94A809089515
:10138000CF92DF92EF92FF920F931F93CF93DF9351
:10139000EC018B0185E0E82EF12CEC0EFD1E0E9485
:1013A0001719EF81F88588819981802B912B99837A
:1013B000888300E010E024C0D280C38080819181C6
:1013C000BC016070AC0150702881398192FD05C06C
:1013D00024233523232B31F40FC024233523241752
:1013E000350751F470FF02C0042B152B68817981F9
:1013F0007260CF010E94411B8D2D9C2D9C01F90133
:10140000EE15FF05C9F60095109588819981802316
:101410009123998388830E94131F88819981DF918A
:10142000CF911F910F91FF90EF90DF90CF90089593
:10143000BA010E94C0090895CF93DF93EC010E9486
:10144000171906C08F81988560E072E00E94411BE9
:101450008A818823B9F70E94131FCE010E94360BA0
:10146000DF91CF910895AF92BF92CF92DF92EF922A
:10147000FF920F931F93CF93DF936C017B01A42EF8
:10148000B22E0E941719F60120813181C7018223F3
:101490009323BB2021F4892B09F05AC004C08E1578
:1014A0009F0509F455C00115110559F4E9011BC048
:1014B000C7018095909582239323F60191838083C1
:1014C0004AC0AA2019F060E071E002C060E070E05C
:1014D000B11074606E297F29C6010296A8010E948E
:1014E0006021C0E0D0E00E94131F012B29F1882366
:1014F00011F40E94900F0E94351C91FD1BC00FB685
:10150000F8940F92F6018081918197012823392365
:10151000BB2019F4232B19F50BC02E153F0541F400
:101520001EC0E094F094E822F922F601F182E082F4
:101530000F900FBEEC01D070CE01DF91CF911F91C3
:101540000F91FF90EF90DF90CF90BF90AF900895F4
:10155000AA2009F0ADCFE90100E010E0C4CFAA2035
:1015600001F7E6CFAF92BF92CF92DF92EF92FF9258
:101570000F931F93CF93DF936C018B017A01590175
:101580000E941719F601C081D181C601B8010E94DD
:10159000C009C02BD12BC7018C239D238E159F051D
:1015A00069F4970120953095F6018081918182231D
:1015B000932391838083AA24BB2410C0A114B10477
:1015C00051F0B7017560C6010296A5010E94602125
:1015D000C0E0D0E003C0F601C081D1810E94131F9A
:1015E000AB28F9F0882311F40E94900F0E94351C5B
:1015F0009C0191FD14C00FB6F8940F92F601208162
:101600003181C701822393238E159F0531F4E09425
:10161000F094E222F322F182E0820F900FBEE90102
:10162000D070CE01DF91CF911F910F91FF90EF907D
:10163000DF90CF90BF90AF900895CF93DF938BE072
:1016400090E00E94710BEC01009731F0FC011192C7
:101650001192CF010E944A0CCE01DF91CF910895E3
:101660008091D4019091D50108950895CF93DF938F
:101670000097A1F1EC0124972A813B8137FF2EC00E
:1016800088819981892B51F53F773B832A830E947A
:1016900017194A815B81A5EBB7E02C9111963C911B
:1016A0001197BD01C901DC0112968D919C91139790
:1016B0008417950790F3FB01B983A883D183C08376
:1016C0008091D4019091D5012A813B81820F931F93
:1016D0009093D5018093D4010E94131FDF91CF9185
:1016E0000895EF92FF920F931F93CF93DF938C0196
:1016F0000E9417198091D801882309F589ED91E09E
:101700009093B6078093B5071092B8071092B70769
:101710008BED95E09093BC078093BB071092BA07BE
:101720001092B9079093DC018093DB0189EB97E07D
:101730009093DA018093D90181E08093D80101155B
:10174000110539F08FEF0B3F180708F06AC00B5FE7
:101750001F4F17FD66C00115110509F462C06091A5
:10176000D4017091D5016017710708F45AC0C09177
:10177000B507D091B607E5EBF7E08A819B8180172A
:10178000910740F4888199819E01009719F0EC013E
:10179000F901F3CFA7E0C93BDA0709F442C0E080C2
:1017A000F18088819981918380838A819B81801BCC
:1017B000910B8930910520F1AE01400F511FFA01C4
:1017C000938382831B830A830280F381E02DA5EB40
:1017D000B7E02C9111963C9111971A2F0B2FC9014C
:1017E000DC0112968D919C9113978E179F0788F3B9
:1017F000812F902FFA01B183A083DC014D935C937C
:1018000087010C5F1F4F8A819B81681B790B709346
:10181000D5016093D40190689B838A8319821882D2
:1018200002C000E010E00E94131FC801DF91CF91B9
:101830001F910F91FF90EF9008950F931F93CF93F7
:10184000DF939C01FB010097B9F08FEF9FEFB90187
:101850000E94F7236E177F0778F4C0E0D0E006C03F
:10186000CE0160E070E0A8010E946D24CE01DF91FE
:10187000CF911F910F910895E29F8001E39F100D7A
:10188000F29F100D1124C8010E94710BEC0100970A
:1018900039F7ECCFFC019C012D5F3F4F3283218350
:1018A0008FEF9FEF9483838336832583308727834D
:1018B00010820895FC01118610860895AC01FC0188
:1018C000A181B281FB01B383A28314968D919C9177
:1018D0001597958384831496ED91FC9115977383E6
:1018E000628315967C936E931497FB015187408712
:1018F000FA0180818F5F80830895CF93DF939C01ED
:10190000EB01488159818FEF4F3F580721F4F901CE
:10191000A781B0850DC0D90113961296ED91FC9167
:101920001397808191814817590710F0DF01F5CF97
:101930001296ED91FC911397FB83EA83D583C483C0
:10194000BD83AC831396DC93CE9312973987288797
:10195000F90180818F5F8083DF91CF910895CF93CC
:10196000DF93DC011896CD91DC91199712964D9179
:101970005C91139714968D919C911597FA0195831C
:10198000848314962D913C911597F90153834283DA
:1019900089819A818A179B0711F43A8329831996C2
:1019A0001C921E9218978881815088838881DF91CC
:1019B000CF9108951F920F920FB60F9211242F937B
:1019C0003F934F935F936F937F938F939F93AF93C7
:1019D000BF93EF93FF9380912F08909130086AE0B6
:1019E00070E00E940F128130D9F44091BD075091F0
:1019F000BE0781E090E0482759275093BE074093E7
:101A0000BD0783E063E00E94310780912F08909129
:101A1000300860E070E040E050E020E00E945913A0
:101A2000FF91EF91BF91AF919F918F917F916F91B6
:101A30005F914F913F912F910F900FBE0F901F908C
:101A4000189589B3869590E08170907090933608D0
:101A500080933508C99905C080E062E041E00E94AA
:101A6000BE06C99B05C080E062E040E00E94BE0661
:101A700080ED97E00E94A421E4CFCF93DF93C1E0F3
:101A8000D0E080912F089091300860E070E00E94D3
:101A90000F128130B1F74091BD075091BE074C271E
:101AA0005D275093BE074093BD0783E063E00E942B
:101AB000310780912F089091300860E070E040E09D
:101AC00050E020E00E94591388E893E10E94A4218D
:101AD000D8CF0E94B5069C01220F331F220F331F5F
:101AE000280F391F442737FD4095542FCA01B901EB
:101AF0000E94F50320E030EC4FE754E40E94190304
:101B000020E030E048EC52E40E941F02609331086C
:101B100070933208809333089093340880ED97E0F7
:101B20000E94A421D6CF80E690E00E946C098091AB
:101B3000BD079091BE078130910519F482E690E0CF
:101B400004C0892B21F48DE690E00E946C098091FD
:101B5000350890913608892B19F489E790E006C082
:101B600087E890E00E946C0986E990E00E946C0989
:101B700088E990E00E946C09609131087091320808
:101B800080913308909134080E9449000E94820994
:101B900086E990E00E946C0980EB94E00E94A42109
:101BA000C2CF8091BD079091BE078130910549F465
:101BB0000E94BC0880E060E00E94B4088EE990E0DA
:101BC0000AC0892B51F40E94BC0880E060E00E94AA
:101BD000B40888EA90E00E94F70881E060E00E9483
:101BE000B40883EB90E00E94F7086091310870918F
:101BF000320880913308909134080E9449000E9475
:101C00000A098091350890913608892B49F40E9481
:101C1000460880E060E00E943E088AEB90E008C041
:101C20000E94460880E060E00E943E0887E890E05D
:101C30000E94810888EE93E00E94A421B2CFEF9227
:101C4000FF920F9380E061E00E94C60781E061E0AF
:101C50000E94C60782E061E00E94C60783E061E05F
:101C60000E94C6070E94C0080E944A080E945D099F
:101C70000E949C0680E060E040E00E94BE0683E097
:101C800060E040E00E94BE0683E061E041E00E9427
:101C9000BE0683E063E041E00E94BE0683E062E0AE
:101CA00040E00E94BE0683E062E041E00E9431070E
:101CB00080E062E040E00E94BE0680E061E040E03B
:101CC0000E94BE0681E060E043E00E945E149093B3
:101CD000300880932F0860E070E040E050E020E0A2
:101CE0000E9459130E9416080E9402088DE39DE08D
:101CF00060E070E044E650E020E030E002E0EE24F6
:101D0000FF240E94A32281ED9DE060E070E048EC9A
:101D100050E020E030E000E00E94A32281E29DE05C
:101D200060E070E044E650E020E030E004E00E9433
:101D3000A32289E69DE060E070E044E650E020E008
:101D400030E005E00E94A32283E99DE060E070E0BE
:101D500040E951E020E030E001E00E94A3220E942F
:101D6000CD23FFCFFC0191E1908322E2229383E314
:101D7000829362937293129280E88293129282E02D
:101D8000829383E0829384E0829385E0829386E06D
:101D9000829387E0829388E0829389E0829380E156
:101DA0008293929382E1829383E1829384E182938E
:101DB00085E1829386E1829387E1829388E1829331
:101DC00089E1829380E2829381E28293229383E28B
:101DD00082934293529386E2829387E2829388E2CF
:101DE000829389E2829380E3829381E382933197A5
:101DF000CF0108951BBC8DE38ABD8BE08EBD89B7F2
:101E0000806189BFA091BF07B091C007CD91CDBFC0
:101E1000DD91DEBFFF91EF91DF91CF91BF91AF9147
:101E20009F918F917F916F915F914F913F912F91F2
:101E30001F910F91FF90EF90DF90CF90BF90AF90E8
:101E40009F908F907F906F905F904F903F902F90DA
:101E50001F900F900FBE0F90089581E00895089590
:101E60000F920FB6F8940F921F9211242F923F9267
:101E70004F925F926F927F928F929F92AF92BF929A
:101E8000CF92DF92EF92FF920F931F932F933F9386
:101E90004F935F936F937F938F939F93AF93BF9372
:101EA000CF93DF93EF93FF93A091BF07B091C0074B
:101EB0000DB60D920EB60D920E943C19882311F0BA
:101EC0000E94541AA091BF07B091C007CD91CDBF19
:101ED000DD91DEBFFF91EF91DF91CF91BF91AF9187
:101EE0009F918F917F916F915F914F913F912F9132
:101EF0001F910F91FF90EF90DF90CF90BF90AF9028
:101F00009F908F907F906F905F904F903F902F9019
:101F10001F900F900FBE0F9008950E94300F1895DC
:101F20000F920FB6F8940F921F9211242F923F92A6
:101F30004F925F926F927F928F929F92AF92BF92D9
:101F4000CF92DF92EF92FF920F931F932F933F93C5
:101F50004F935F936F937F938F939F93AF93BF93B1
:101F6000CF93DF93EF93FF93A091BF07B091C0078A
:101F70000DB60D920EB60D920E94541AA091BF0795
:101F8000B091C007CD91CDBFDD91DEBFFF91EF9144
:101F9000DF91CF91BF91AF919F918F917F916F9181
:101FA0005F914F913F912F911F910F91FF90EF9073
:101FB000DF90CF90BF90AF909F908F907F906F9069
:101FC0005F904F903F902F901F900F900FBE0F90FB
:101FD0000895FC010FB6F8940F92828D0F900FBEFA
:101FE0000895FC010FB6F8940F92928D0F900FBEDA
:101FF000838D891B0895FC01828D0895FC01828DDB
:1020000090E0882309F491E0892F0895FC01928DD6
:1020100020E0838D981709F421E0822F08950E9413
:10202000360B0895FC01562FA72F248D2223B9F0DB
:1020300086819781820F911D9783868324813581C4
:102040008217930720F08081918197838683448D46
:1020500066817781852F9A2F50E00E94642408952D
:102060000F931F93CF93DF93EC018A8D882341F068
:102070000E811F81CE010E9412101F830E8381E00A
:10208000DF91CF911F910F9108950F931F93CF93DD
:10209000DF93EC01042F1A8D4C8D4423C1F10023F2
:1020A000B1F48A819B8150E00E9464248C8D2A8146
:1020B0003B81280F311D3B832A838C819D8128170A
:1020C000390728F1888199819B838A8320C08E817A
:1020D0009F8150E00E9464248C8D90E04427552716
:1020E000481B590B8E819F81840F951F9F838E8380
:1020F000288139818217930730F48C819D81840F68
:10210000951F9F838E83023011F4111111501F5FB0
:102110001A8F80E0DF91CF911F910F910895EF9278
:10212000FF920F931F93CF93DF93EC017A011A8DE7
:10213000112311F480E01EC00D8D0E941210115069
:102140001A8F0F3F81F48885882399F0CE01089675
:102150000E948E1A882369F0E114F10451F081E0A5
:10216000F701808307C00E942E19081710F40F5F33
:102170000D8F81E0DF91CF911F910F91FF90EF9034
:102180000895EF92FF921F93CF93DF93EC017B01B1
:102190009A8D8B8D981710F080E01CC01E8D9F5F6C
:1021A0009A8F1F3F81F48989882399F0CE01419647
:1021B0000E948E1A882369F0E114F10451F081E045
:1021C000F701808307C00E942E19181710F41F5FB3
:1021D0001E8F81E0DF91CF911F91FF90EF900895C6
:1021E000EF92FF921F93CF93DF93EC017A019A8DC8
:1021F0008B8D981720F0223011F080E01FC01E8DCB
:102200008A8DCE01422F0E9445101F3F81F489899B
:10221000882399F0CE0141960E948E1A882369F096
:10222000E114F10451F081E0F701808307C00E94BE
:102230002E19181710F41F5F1E8F81E0DF91CF91C8
:102240001F91FF90EF900895EF92FF921F93CF930D
:10225000DF93EC010FB6F8940F921E8D91E1E92EF9
:10226000F12CEC0EFD1E0BC08989882351F0C701AB
:102270000E948E1A882311F00E942B1C11501116F7
:102280009CF38FEF8E8F0F900FBE0FB6F8940F92C6
:102290001D8D88E0E82EF12CEC0EFD1E0BC088850C
:1022A000882351F0C7010E948E1A882311F00E94E2
:1022B0002B1C115011169CF38FEF8D8F0F900FBEBA
:1022C000DF91CF911F91FF90EF9008958F929F9291
:1022D000AF92BF92CF92DF92EF92FF920F931F9334
:1022E000DF93CF9300D000D00F92CDB7DEB77C0143
:1022F0005B015D834C8341E1C42ED12CC80ED91EF5
:1023000020E08E010F5F1F4F34E0832E912C8C0E46
:102310009D1E01C021E00FB6F8940F92F701828D47
:102320008823B9F006811781C701B5010E941210F8
:10233000F701178306838189882339F0C6010E943B
:102340008E1A882311F00E94900F0F900FBE81E02B
:1023500054C08C819D81892B21F40F900FBE80E0A9
:102360004CC0222319F4C8010E94EB1B0F900FBE32
:102370000E9417190FB6F8940F92F701858D8F3FC1
:1023800009F4158EF701868D8F3F09F4168E0F9094
:102390000FBEC801B4010E94F61B8823F9F40FB6E2
:1023A000F8940F92F701828D0F900FBE882381F46D
:1023B0006C817D81C6010E94EA21C7010E9424111F
:1023C0000E94131F882309F0A5CF0E94900FA2CF6F
:1023D000C7010E9424110E94131F9CCFC7010E94B5
:1023E00024110E94131F0FB6F8940F92F701828DEB
:1023F0000F900FBE882309F08DCF0F900F900F9094
:102400000F900F90CF91DF911F910F91FF90EF9060
:10241000DF90CF90BF90AF909F908F900895AF9234
:10242000BF92CF92DF92EF92FF920F931F93DF93B1
:10243000CF9300D000D00F92CDB7DEB78C017D8353
:102440006C8361E1E62EF12CE80EF91E20E06E01AE
:102450000894C11CD11C54E0A52EB12CAC0EBD1E9D
:1024600001C021E00FB6F8940F92F801828D882305
:1024700089F08150828F8085882341F0C8010896B9
:102480000E948E1A882311F00E94900F0F900FBEA9
:1024900081E054C08C819D81892B21F40F900FBE67
:1024A00080E04CC0222319F4C6010E94EB1B0F9060
:1024B0000FBE0E9417190FB6F8940F92F801858D80
:1024C0008F3F09F4158EF801868D8F3F09F4168E23
:1024D0000F900FBEC601B5010E94F61B8823F9F4C8
:1024E0000FB6F8940F92F801828D0F900FBE8823DB
:1024F00081F46C817D81C7010E94EA21C8010E949C
:1025000024110E94131F882309F0ABCF0E94900F63
:10251000A8CFC8010E9424110E94131FA2CFC80196
:102520000E9424110E94131F0FB6F8940F92F80115
:10253000828D0F900FBE882309F093CF0F900F90DC
:102540000F900F900F90CF91DF911F910F91FF90FF
:10255000EF90DF90CF90BF90AF9008956F927F92F1
:102560008F929F92AF92BF92CF92DF92FF920F9382
:102570001F93DF93CF9300D000D00F92CDB7DEB77B
:102580008C015B015D834C83E1E1CE2ED12CC80E22
:10259000D91E20E04E010894811C911C74E0672E26
:1025A000712C6C0E7D1E01C021E00FB6F8940F92C5
:1025B000F801F28CFF20B1F0C801B5010E941210A1
:1025C000FA94F801F28E8085882341F0C8010896BC
:1025D0000E948E1A882311F00E94900F0F900FBE58
:1025E00081E054C08C819D81892B21F40F900FBE16
:1025F00080E04CC0222319F4C4010E94EB1B0F9011
:102600000FBE0E9417190FB6F8940F92F801858D2E
:102610008F3F09F4158EF801868D8F3F09F4168ED1
:102620000F900FBEC401B3010E94F61B8823F9F47A
:102630000FB6F8940F92F801828D0F900FBE882389
:1026400081F46C817D81C6010E94EA21C8010E944B
:1026500024110E94131F882309F0A6CF0E94900F17
:10266000A3CFC8010E9424110E94131F9DCFC8014F
:102670000E9424110E94131F0FB6F8940F92F801C4
:10268000828D0F900FBE882309F08ECF0F900F9090
:102690000F900F900F90CF91DF911F910F91FF90AE
:1026A000DF90CF90BF90AF909F908F907F906F9072
:1026B00008956F927F929F92AF92BF92CF92DF92D6
:1026C000EF92FF920F931F93DF93CF9300D000D030
:1026D0000F92CDB7DEB78C016B015D834C83922ED8
:1026E000A8E0EA2EF12CE80EF91E20E05E01089425
:1026F000A11CB11CF4E06F2E712C6C0E7D1E01C06C
:1027000021E00FB6F8940F92F801928D838D9817FF
:1027100018F0F2E09F16C9F4C801B601492D0E94D5
:102720004510982FF8018189882339F0C801419616
:102730000E948E1A882329F002C0992311F00E946A
:10274000900F0F900FBE81E04CC08C819D81892B32
:1027500019F40F900FBE44C0222319F4C5010E9442
:10276000EB1B0F900FBE0E9417190FB6F8940F9233
:10277000F801858D8F3F09F4158EF801868D8F3F06
:1027800009F4168E0F900FBEC501B3010E94F61B0F
:10279000882309F50FB6F8940F92F801928D0F90E7
:1027A0000FBEF801838D981781F46C817D81C7017C
:1027B0000E94EA21C8010E9424110E94131F88234D
:1027C00009F09ECF0E94900F9BCFC8010E94241158
:1027D0000E94131F95CFC8010E9424110E94131F4D
:1027E00080E00F900F900F900F900F90CF91DF919E
:1027F0001F910F91FF90EF90DF90CF90BF90AF901F
:102800009F907F906F900895CF93DF93EC01E62F18
:10281000009709F44FC02B8D222309F44BC03C8D47
:102820008FEF9FE7622F70E00E94F723832F90E0E5
:102830006817790708F43EC00FB6F8940F92329FDC
:10284000C001112448815981840F951F9D838C8379
:102850001A8E5B834A832B8D30E0215030408C8D63
:1028600090E0BC01269FC001279F900D369F900DE0
:102870001124480F591F5F834E838FEF8D8F8E8FEA
:10288000EE2361F48885882389F0CE0108960E94A2
:102890008E1A882359F00E94900F08C0CE01089626
:1028A0000E944A0CCE0141960E944A0C0F900FBE26
:1028B00081E001C080E0DF91CF9108950F931F93D5
:1028C000CF93DF93182F062F882341F18FEF9FE7D7
:1028D000612F70E00E94F723802F90E0681779073E
:1028E000E8F0019FC00111242FE7813E9207B0F468
:1028F0004F960E94710BFC01EC01009789F00023B8
:1029000019F49183808303C04F9691838083138F42
:10291000048FCF0161E00E94041402C0C0E0D0E047
:10292000CE01DF91CF911F910F910895FC016115A8
:10293000710511F461E070E0848195816817790771
:1029400010F080E008957783668381E00895FC01AC
:10295000648175812081318140815181828193819F
:10296000460F571F481B590B808191812817390743
:1029700089F79A01215030402617370710F0261B9F
:10298000370BC9010895FC014481558122813381AF
:1029900080819181240F351F281B390B241735079F
:1029A00010F0241B350BC9010895FC0120813181F1
:1029B0008281938140E08217930709F441E0842FDC
:1029C0000895CF93DF93FC01868580FD03C0C0E0AE
:1029D000D0E002C0C2E0D0E0CF010E94A71420E006
:1029E000C817D90708F021E0822FDF91CF91089511
:1029F000CF92DF92EF92FF920F93CF93DF93EC0190
:102A00006B018A859B85892B11F480E00FC08A8534
:102A10009B8560E020E030E040E050E000E0EE2404
:102A2000FF240E944D1C1B861A8681E0DF91CF9106
:102A30000F91FF90EF90DF90CF900895CF92DF92AB
:102A4000EF92FF920F93CF93DF93EC016B01888598
:102A50009985892B11F480E00FC08885998560E005
:102A600020E030E040E050E000E0EE24FF240E944F
:102A70004D1C1986188681E0DF91CF910F91FF9050
:102A8000EF90DF90CF900895AF92BF92CF92DF92F8
:102A9000EF92FF920F931F93CF93DF936C018B0103
:102AA0007A015901DC011496CD91DC911597C21B76
:102AB000D30B4C175D0708F4EA01F6012485358530
:102AC0002A0D3B1DC801B901AE010E946424CE1538
:102AD000DF0580F498012C0F3D1FF701EC1BFD0B67
:102AE000D6011C966C911C971D967C91C901AF0173
:102AF0000E94642495012E0D3F1DF601848195816D
:102B00002817390710F0281B390BC901DF91CF9125
:102B10001F910F91FF90EF90DF90CF90BF90AF90FB
:102B20000895AF92BF92CF92DF92EF92FF920F93F0
:102B30001F93DF93CF9300D0CDB7DEB77C015B014D
:102B40006A018901FC0120813181868580FD02C0F6
:102B5000CA0112C0C701BE016F5F7F4F42E050E063
:102B60000E9444159C0189819A8102501040C81628
:102B7000D90610F480E090E08017910708F48C01EA
:102B80000115110541F0C701B501A8010E944415C6
:102B9000F70191838083C8010F900F90CF91DF914F
:102BA0001F910F91FF90EF90DF90CF90BF90AF906B
:102BB0000895AF92BF92CF92DF92EF92FF920F9360
:102BC000CF93DF93EC0169018E8580FD03C0A0E007
:102BD000B0E002C0A2E0B0E0EC81FD812A813B813F
:102BE000888199812E0F3F1F281B390B2E173F0715
:102BF00010F02E1B3F0BA217B30718F0AA24BB241A
:102C000018C0CE010E9491155C01009791F08A8551
:102C10009B85892B71F08A859B8560E020E030E000
:102C200040E050E000E0EE24FF240E944D1C1B8693
:102C30001A86C501DF91CF910F91FF90EF90DF9041
:102C4000CF90BF90AF900895DF93CF9300D0CDB7D2
:102C5000DEB7FC01868580FF1FC04481558122813B
:102C6000338180819181240F351F281B390B241754
:102C7000350710F0241B350B2330310568F0208117
:102C80003181CF01BE016F5F7F4F42E050E00E9473
:102C9000441529813A8102C020E030E0C9010F903B
:102CA0000F90CF91DF910895AF92BF92CF92DF92B4
:102CB000EF92FF920F931F93CF93DF937C016B01F1
:102CC0008A015901DC011496CD91DC911597C21B44
:102CD000D30B4C175D0708F4EA01F701248535850D
:102CE0002A0D3B1DC901B601AE010E946424C01724
:102CF000D10780F4F801EC1BFD0B96012C0F3D1F52
:102D0000D7011C968C911C971D969C91B901AF011F
:102D10000E9464249501200F311FF7018481958161
:102D20002817390710F0281B390BC901DF91CF9103
:102D30001F910F91FF90EF90DF90CF90BF90AF90D9
:102D40000895AF92BF92CF92DF92EF92FF920F93CE
:102D50001F93DF93CF9300D0CDB7DEB76C015B013B
:102D60007A01DC011296ED91FC9113971E968C91DD
:102D700080FF13C02017310718F4EE24FF241DC074
:102D80005A834983C601BE016F5F7F4F42E050E026
:102D90009F010E945416FC0104C02417350708F453
:102DA0007901E114F10449F0C601B501A7019F01C1
:102DB0000E945416F60193838283C7010F900F90EF
:102DC000CF91DF911F910F91FF90EF90DF90CF9007
:102DD000BF90AF900895AF92BF92CF92DF92EF92E3
:102DE000FF920F931F93CF93DF93EC015B018A0156
:102DF00069018E8580FD02C07A0105C082E0E82E5F
:102E0000F12CE40EF51ECE010E94A7149C01CE0108
:102E1000B501A80187010E94A1165C01009731F15C
:102E20004C815D812A813B8188819981240F351FE6
:102E3000281B390B2417350710F0241B350B8E8106
:102E40009F812817390790F088859985892B71F023
:102E50008885998560E020E030E040E050E000E0C7
:102E6000EE24FF240E944D1C19861886C501DF91AF
:102E7000CF911F910F91FF90EF90DF90CF90BF9077
:102E8000AF9008956F927F928F929F92AF92BF9270
:102E9000CF92DF92EF92FF920F931F93CF93DF9326
:102EA000EC014B013A0169018E8580FD03C0AA2423
:102EB000BB2403C092E0A92EB12C2C813D81C1140A
:102EC000D10491F10FB6F8940F920A811B81888189
:102ED0009981020F131F081B190B0217130710F01B
:102EE000021B130BA016B10648F080E090E060E0F2
:102EF0000E94FB1D0E942F1C998788870F900FBE90
:102F0000A016B10620F180E040E050E060E070E003
:102F100000E010E020E030E0EE24FF240E944C208E
:102F2000198618862C813D810A811B8188819981AF
:102F3000020F131F081B190B0217130710F0021BB7
:102F4000130BA016B10618F0CC24DD241FC0CE014F
:102F5000B401A30198010E9491156C010097B1F092
:102F60000E9417198A859B85892B71F08A859B851C
:102F700060E020E030E040E050E000E0EE24FF249C
:102F80000E94451E1B861A860E94131FC601DF91F0
:102F9000CF911F910F91FF90EF90DF90CF90BF9056
:102FA000AF909F908F907F906F9008952F923F9257
:102FB0004F925F926F927F928F929F92AF92BF9249
:102FC000CF92DF92EF92FF920F931F93DF93CF93F5
:102FD000CDB7DEB727970FB6F894DEBF0FBECDBFD3
:102FE0005C017F836E832A013D832C83FC01248155
:102FF000358121503040868580FF0BC042E0642E31
:10300000712C640C751C2615370548F41D821C8232
:1030100006C02417350710F4390101C03A018C812C
:103020009D81892B09F43DC08E010F5F1F4FC801A0
:103030000E94DB1B18010FB6F8940F92C5010E9485
:10304000A7144C018615970538F580E090E060E004
:103050000E94FB1D0E942F1CF501938782870F9011
:103060000FBECC80DD8080E040E050E060E070E0AA
:1030700000E010E020E030E0EE24FF240E944C202D
:10308000F50113861286C101BE016C5F7F4F0E945D
:10309000F61B882381F202C00F900FBE940189288D
:1030A00021F4C5010E94A7149C01C5016E817F8196
:1030B000A20183010E94A1166C01009771F1F50134
:1030C000448155812281338180819181240F351F74
:1030D000281B390B2417350710F0241B350BF5017D
:1030E0008681978128173907C0F00E941719F501CA
:1030F00080859185892B79F08085918560E020E03D
:1031000030E040E050E000E0EE24FF240E94451E45
:10311000F501118610860E94131FC60127960FB66F
:10312000F894DEBF0FBECDBFCF91DF911F910F91FD
:10313000FF90EF90DF90CF90BF90AF909F908F90D7
:103140007F906F905F904F903F902F900895FC017B
:103150000FB6F8940F9280859185892BC9F48285EA
:103160009385892BA9F42485358544815581668111
:10317000778196858FE0DF011D928A95E9F7358783
:1031800024875583448377836683968781E001C0D3
:1031900080E00F900FBE0895FC01868581FD04C07C
:1031A000CF010E94360B08958FE0DF011D928A95B2
:1031B000E9F70895CF92DF92FF920F931F93CF9379
:1031C000DF936C018B01F42E6115710511F401E0A0
:1031D00010E0C6014096C816D90618F0A0E0B0E08D
:1031E0001DC00E94710BFC01DC010097B9F08FE05B
:1031F000EF0119928A95E9F71F96B587A4871F9763
:103200000894C11CD11CD582C482178306831686FC
:1032100081E0F81619F41E96FC921E97CD01DF91FD
:10322000CF911F910F91FF90DF90CF9008958091E3
:10323000C1078F5F8093C10708950FB6F8940F926E
:103240002091C4073091C5070F900FBEC9010895A2
:103250002091C4073091C507C90108958091CB071B
:103260000895009721F48091BF079091C0079C01B9
:10327000275E3F4FC9010895EF92FF920F931F936E
:10328000CF93DF938091C107882309F0FBC00091A1
:10329000C4071091C5070F5F1F4F1093C507009318
:1032A000C4070115110561F52091190830911A081C
:1032B00080911B0890911C0890931A08809319081C
:1032C00030931C0820931B088091C8078F5F809360
:1032D000C807E0911908F0911A088081882319F431
:1032E0008FEF9FEF09C0E0911908F0911A0805804F
:1032F000F681E02D808191819093C7078093C60766
:103300008091C6079091C7070817190708F4A2C053
:10331000FF2439E0E32EE0911908F0911A0880812A
:10332000882319F48FEF9FEF0EC0E0911908F091F8
:103330001A080580F681E02DC681D7818A819B819C
:103340000817190728F49093C7078093C60783C00E
:10335000AA85BB854C815D818E819F81FA01958311
:1033600084832E813F81F90153834283BE016E5FC6
:103370007F4F11968D919C9112978617970721F494
:1033800012963C932E9311971B861A868C9181502E
:103390008C93AC89BD891097F9F02E853F8588897B
:1033A0009989F9019583848348895989FA0133837E
:1033B00022839E01245F3F4F11968D919C9112971D
:1033C0008217930721F412965C934E9311971D8AEE
:1033D0001C8A8C9181508C939E898091C207891799
:1033E00010F49093C207892F90E0FC0123E0EE0FC8
:1033F000FF1F2A95E1F7E80FF91FEF52F84FA1815F
:10340000B281BD83AC8314968D919C9115979F8357
:103410008E831496ED91FC911597738362831596B4
:103420007C936E931497EE89EE9DF0011124EF5278
:10343000F84FFB87EA8780818F5F8083E091BF0729
:10344000F091C0079E898689891708F064CFFF2410
:10345000F39461CFFF24E091BF07F091C007E689A4
:1034600089E0E89FF0011124EF52F84F808182300B
:1034700010F0FF24F3948091C307882369F0FF24A0
:10348000F3940AC08091C9079091CA07019690935E
:10349000CA078093C907FF248F2DDF91CF911F9119
:1034A0000F91FF90EF9008958091C107882321F03C
:1034B00081E08093C30708951092C3072091C2074B
:1034C00099E001C02150299FD0011124AF52B84F7B
:1034D0008C918823B9F31196ED91FC91129702809B
:1034E000F381E02D1296FC93EE931197CD01039694
:1034F000E817F90731F48281938112969C938E9399
:1035000011971196ED91FC91129786819781909376
:10351000C0078093BF072093C2070895CF93DF931E
:10352000DC011596ED91FC911697C681D781AC8987
:10353000BD894E855F8588899989FA019583848341
:1035400028893989F90153834283AE01445F5F4F73
:1035500011968D919C9112978417950721F41296DC
:103560003C932E9311971D8A1C8A8C9181508C93C9
:103570008091C107882309F055C0AA85BB854C817D
:103580005D818E819F81FA01958384832E813F81A5
:10359000F90153834283AE014E5F5F4F11968D91C7
:1035A0009C9112978417950721F412963C932E93C1
:1035B00011971B861A868C9181508C939E898091DD
:1035C000C207891710F49093C207892F90E0FC017D
:1035D00063E0EE0FFF1F6A95E1F7E80FF91FEF5266
:1035E000F84FA181B281BD83AC8314968D919C91DB
:1035F00015979F838E831496ED91FC9115975383B5
:10360000428315965C934E931497EE8989E0E89F68
:10361000F0011124EF52F84FFB87EA8780818F5F1A
:1036200080831FC0A0911E08B0911F08BF87AE877E
:1036300014968D919C911597998B888B1496ED918A
:10364000FC9115975383428315965C934E93149780
:103650008DE198E09D8B8C8B80911D088F5F80930E
:103660001D08E091BF07F091C0079E8986898917E0
:1036700010F080E003C081E08093C307DF91CF9119
:103680000895CF93DF93DC01706811967C936E935D
:1036900016962D913C9117971896CD91DC9119971C
:1036A00012966D917C91139714968D919C9115971C
:1036B000FB019583848314964D915C911597FA01D3
:1036C0007383628389819A818A179B0711F45A83D5
:1036D000498319961C921E9218978881815088837D
:1036E000E901AA85BB854C815D818E819F81FA01AC
:1036F000958384830E80DF81C02D5B834A83A9017B
:103700004E5F5F4F11968D919C911297841795078C
:1037100021F41296DC93CE931197E9011B861A8649
:103720008C9181508C939E898091C207891710F4E7
:103730009093C207892F90E0FC0173E0EE0FFF1F0A
:103740007A95E1F7E80FF91FEF52F84FA181B281A6
:10375000F901B583A48314968D919C911597978355
:1037600086831496ED91FC911597538342831596A9
:103770005C934E931497D9015696EC91569789E035
:10378000E89FF0011124EF52F84F1B96FC93EE9343
:103790001A9780818F5F8083E091BF07F091C00707
:1037A00056969C918689891718F481E08093C30707
:1037B000DF91CF910895FC010FB6F8940F9280919C
:1037C000C80780838091C4079091C5079283818345
:1037D0000F900FBE0895FC018091C80780838091EF
:1037E000C4079091C507928381830895DC01FB0192
:1037F0000FB6F8940F924091C4075091C5071196E7
:103800002D913C9112979091C8078C91981719F0BF
:1038100042175307D0F4CA01821B930B9C0180818D
:1038200091812817390788F4821B930B9183808339
:103830008091C8078C938091C4079091C507129618
:103840009C938E93119780E003C01182108281E0D7
:103850000F900FBE089581E08093C30708952091D3
:10386000BF073091C007C9010895E091BF07F091EB
:10387000C00784859585A091BF07B091C007E091EE
:10388000BF07F091C007468926E030E0241B3109CC
:103890001D963C932E931C970895CF92DF92EF9242
:1038A000FF920F93CF93DF93EC01E114F10489F0C1
:1038B000E62FF0E0EE0FFF1FEE0FFF1FE80FF91FDE
:1038C00081A192A1A3A1B4A1F70180839183A283D6
:1038D000B383A62FB0E0FE01EA0FFB1F65A182E0D3
:1038E00085A30230D1F0033018F40130C9F505C0CA
:1038F000033051F10430A1F523C0FD01EE0FFF1F8D
:10390000EE0FFF1FEC0FFD1F81A192A1A3A1B4A197
:10391000822B932BA42BB52B0EC0FD01EE0FFF1FA6
:10392000EE0FFF1FEC0FFD1F81A192A1A3A1B4A177
:103930000196A11DB11D81A392A3A3A3B4A310C09E
:10394000623011F480E09DC0AA0FBB1FAA0FBB1FFD
:10395000AC0FBD1F91962D933D934D935C9394971F
:10396000613009F08DC08091C107882309F055C0EE
:10397000AA85BB854C815D818E819F81FA019583EB
:1039800084832E813F81F90153834283AE014E5FD0
:103990005F4F11968D919C9112978417950721F492
:1039A00012963C932E9311971B861A868C91815008
:1039B0008C939E898091C207891710F49093C20757
:1039C000892F90E0FC01A3E0EE0FFF1FAA95E1F71D
:1039D000E80FF91FEF52F84FA181B281BD83AC838C
:1039E00014968D919C9115979F838E831496ED91DB
:1039F000FC9115975383428315965C934E931497CD
:103A0000EE8989E0E89FF0011124EF52F84FFB871F
:103A1000EA8780818F5F808321C0A0911E08B091CA
:103A20001F08BF87AE8714968D919C911597998B2F
:103A3000888BCE010C961496ED91FC91159793838B
:103A4000828315969C938E9314978DE198E09D8BBD
:103A50008C8B80911D088F5F80931D08E091BF07BC
:103A6000F091C0079E898689891750F4C114D1044A
:103A700019F081E0F601808381E08093C30701C0E3
:103A800081E0DF91CF910F91FF90EF90DF90CF9089
:103A90000895CF93DF93EC01E62FBA01F0E0DC014B
:103AA000AE0FBF1F95962C91959782E095968C93BB
:103AB000EE0FFF1FEE0FFF1FEC0FFD1F81A192A164
:103AC000A3A1B4A10196A11DB11D81A392A3A3A39B
:103AD000B4A3213009F08CC08091C107882309F07C
:103AE00055C0AA85BB854C815D818E819F81FA017D
:103AF000958384832E813F81F90153834283AE01F4
:103B00004E5F5F4F11968D919C9112978417950788
:103B100021F412963C932E9311971B861A868C9152
:103B200081508C939E898091C207891710F49093DD
:103B3000C207892F90E0FC01A3E0EE0FFF1FAA95BA
:103B4000E1F7E80FF91FEF52F84FA181B281BD8371
:103B5000AC8314968D919C9115979F838E831496B8
:103B6000ED91FC9115975383428315965C934E9388
:103B70001497EE8989E0E89FF0011124EF52F84F85
:103B8000FB87EA8780818F5F808321C0A0911E0818
:103B9000B0911F08BF87AE8714968D919C911597A1
:103BA000998B888BCE010C961496ED91FC9115970C
:103BB0009383828315969C938E9314978DE198E05E
:103BC0009D8B8C8B80911D088F5F80931D08E091E9
:103BD000BF07F091C0079E898689891748F461154F
:103BE000710519F081E0FB01808381E08093C307B8
:103BF000DF91CF910895009721F48091BF079091B4
:103C0000C0070FB6F8940F92FC01E60FF11D85A1D5
:103C1000823011F080E002C015A281E00F900FBE4B
:103C20000895EF92FF920F931F9379018A010097F5
:103C300021F48091BF079091C0070FB6F8940F92BE
:103C4000E62FF0E0EE0FFF1FEE0FFF1FE80FF91F4A
:103C500021A132A143A154A181A192A1A3A1B4A108
:103C6000E094F094009510958E219F21A023B1231C
:103C700081A392A3A3A3B4A30F900FBEB901CA015D
:103C80001F910F91FF90EF900895EF92FF920F9385
:103C9000CF93DF93EC010FB6F8940F92E114F10487
:103CA00089F0E62FF0E0EE0FFF1FEE0FFF1FEC0F85
:103CB000FD1F81A192A1A3A1B4A1F70180839183EB
:103CC000A283B383A62FB0E0FE01EA0FFB1F65A11C
:103CD00082E085A30230D1F0033018F40130C9F539
:103CE00005C0033051F10430A1F523C0FD01EE0FF2
:103CF000FF1FEE0FFF1FEC0FFD1F81A192A1A3A1DB
:103D0000B4A1822B932BA42BB52B0EC0FD01EE0F7B
:103D1000FF1FEE0FFF1FEC0FFD1F81A192A1A3A1BA
:103D2000B4A10196A11DB11D81A392A3A3A3B4A325
:103D300010C0623011F480E06EC0AA0FBB1FAA0F42
:103D4000BB1FAC0FBD1F91962D933D934D935C937C
:103D50009497613009F05EC0AA85BB854C815D8176
:103D60008E819F81FA01958384832E813F81F901A1
:103D700053834283AE014E5F5F4F11968D919C91AC
:103D800012978417950721F412963C932E9311975E
:103D90001B861A868C9181508C939E898091C207D4
:103DA000891710F49093C207892F90E0FC0133E04B
:103DB000EE0FFF1F3A95E1F7E80FF91FEF52F84FAA
:103DC000A181B281BD83AC8314968D919C9115978E
:103DD0009F838E831496ED91FC91159753834283B4
:103DE00015965C934E931497EE8989E0E89FF00155
:103DF0001124EF52F84FFB87EA8780818F5F808321
:103E0000E091BF07F091C0079E898689891710F459
:103E10000E94900F81E00F900FBEDF91CF910F9124
:103E2000FF90EF9008951F93CF93DF930FB6F89410
:103E30000F928091C10781508093C1078091C10783
:103E4000882309F0C7C08091CB07882309F4C2C03A
:103E5000C0E0D0E079E061E084C0E0912208F09118
:103E60002308C681D781AC89BD892E853F85888985
:103E70009989F9019583848348895989FA013383A3
:103E800022839E01245F3F4F11968D919C91129742
:103E90008217930721F412965C934E9311971D8A13
:103EA0001C8A8C9181508C93AA85BB854C815D8145
:103EB0008E819F81FA01958384832E813F81F90150
:103EC00053834283AE014E5F5F4F11968D919C915B
:103ED00012978417950721F412963C932E9311970D
:103EE0001B861A868C9181508C939E898091C20783
:103EF000891710F49093C207892F90E0FC0123E00A
:103F0000EE0FFF1F2A95E1F7E80FF91FEF52F84F68
:103F1000A181B281BD83AC8314968D919C9115973C
:103F20009F838E831496ED91FC9115975383428362
:103F300015965C934E931497EE89E79FF001112438
:103F4000EF52F84FFB87EA8780818F5F8083E09193
:103F5000BF07F091C0079E898689981710F060937B
:103F6000C30780911D08882309F077CFCD2BB9F0C6
:103F7000E0911908F0911A088081882319F48FEFD5
:103F80009FEF09C0E0911908F0911A080580F681A9
:103F9000E02D808191819093C7078093C607C091DF
:103FA000C907D091CA07209769F011E00E943C1917
:103FB000882311F01093C3072197C1F71092CA0705
:103FC0001092C9078091C307882321F00E94900FA7
:103FD00081E001C080E00F900FBEDF91CF911F9173
:103FE00008952091C1072F5F2093C1070FB6F89461
:103FF0000F922091C9073091CA07280F391F3093BB
:10400000CA072093C9070F900FBE0E94131F08957F
:104010000F931F93CF93DF93EC010091C40710918E
:10402000C5078091BF079091C00702960E94AF0C10
:10403000C00FD11FE091BF07F091C007D383C283A7
:10404000C017D10768F480911B0890911C086091FB
:10405000BF077091C0076E5F7F4F0E947D0C17C035
:104060008091190890911A086091BF077091C0075C
:104070006E5F7F4F0E947D0C8091C6079091C707AD
:10408000C817D90720F4D093C707C093C607DF919C
:10409000CF911F910F9108958F929F92AF92BF92EF
:1040A000CF92DF92EF92FF920F931F93CF93DF9304
:1040B00048015901E7010FB6F8940F92E091BF074C
:1040C000F091C007E82EFF24EE0DFF1D85A1823080
:1040D00061F1E091BF07F091C007C701880F991FF8
:1040E000880F991FE80FF91F81A192A1A3A1B4A184
:1040F000409550956095709584239523A623B7230A
:1041000081A392A3A3A3B4A3E091BF07F091C0073A
:10411000EE0DFF1D81E085A3C114D10431F0C6016D
:1041200061E00E9408200E94900F0F900FBE0FB612
:10413000F8940F92209799F0E091BF07F091C00793
:10414000C701880F991F880F991FE80FF91F81A1D8
:1041500092A1A3A1B4A188839983AA83BB83E09190
:10416000BF07F091C007EE0DFF1D85A1823011F051
:1041700080E01CC0E091BF07F091C007C701880F25
:10418000991F880F991FE80FF91F81A192A1A3A180
:10419000B4A180949094A094B09488219921AA21EC
:1041A000BB2181A392A3A3A3B4A381E0E091BF07A5
:1041B000F091C007EE0DFF1D15A20F900FBEDF910D
:1041C000CF911F910F91FF90EF90DF90CF90BF9014
:1041D000AF909F908F9008951F93CF93DF93162FEA
:1041E0000FB6F8940F92E091BF07F091C007C82F67
:1041F000D0E0CE01880F991F880F991FE80FF91F93
:1042000081A192A1A3A1B4A10097A105B10589F450
:10421000E091BF07F091C007EC0FFD1F81E085A37F
:104220004115510531F0CA0161E00E9408200E9449
:10423000900F0F900FBE0FB6F8940F92E091BF074A
:10424000F091C007CE01880F991F880F991FE80FC2
:10425000F91F21A132A143A154A121153105410526
:104260005105F9F0112359F0E091BF07F091C00713
:10427000E80FF91F11A212A213A214A212C0E0911A
:10428000BF07F091C0072150304040405040E80F38
:10429000F91F21A332A343A354A32F5F3F4F4F4FD6
:1042A0005F4FE091BF07F091C007EC0FFD1F15A213
:1042B0000F900FBEB901CA01DF91CF911F910895F0
:1042C0000F931F938C01CA01E091BF07F091C007C3
:1042D000706875876487F801A181B281E091BF079A
:1042E000F091C007B787A687E091BF07F091C0079C
:1042F00014962D913C911597318B208B2091BF07FF
:104300003091C0071496ED91FC911597245F3F4FB3
:10431000338322832091BF073091C007245F3F4F32
:1043200015963C932E931497E091BF07F091C00728
:10433000158B048BF80120812F5F208361E00E94A0
:1043400008201F910F9108959C01009769F08091BA
:10435000C1078F5F8093C107C90160E00E940820F8
:104360000E94131F882311F40E94900F08951F9339
:10437000FC018091C1078F5F8093C1078091C407C2
:104380009091C50720813181620F731F82179307B7
:1043900028F46217730728F010E008C0621773074B
:1043A00020F010E08617970708F411E0718360830E
:1043B000112339F09B01281B390BC90160E00E94D1
:1043C00008200E94131F882311F40E94900F812F50
:1043D0001F9108950F931F938B016091BF077091F8
:1043E000C007645F7F4F0E947D0CC80161E00E949E
:1043F00008201F910F910895F8941092CC070E9405
:104400002F0F08950F931F9321C00FB6F8940F92AA
:10441000E0912B08F0912C0806811781C8010296C3
:104420000E94AF0C8091CB0781508093CB07809185
:10443000CF0781508093CF070F900FBEF801878977
:10444000908D0E94360BC8010E94360B8091CF07D9
:104450008823D9F68091D1078230C0F30E94900F53
:10446000F5CF0F931F93CF93DF930FB6F8940F926E
:10447000009711F0EC0104C0C091BF07D091C007B4
:104480008E010E5F1F4FC8010E94AF0C8C899D8961
:10449000892B21F0CE010C960E94AF0C8091D007A1
:1044A0008F5F8093D0078091BF079091C007C81796
:1044B000D90759F486E298E0B8010E945E0C809119
:1044C000CF078F5F8093CF071CC08091CB078150AF
:1044D0008093CB07E0911908F0911A088081882316
:1044E00019F48FEF9FEF09C0E0911908F0911A08B5
:1044F0000580F681E02D808191819093C70780939C
:10450000C6070F900FBE8091BF079091C007C817D4
:10451000D90739F08F89988D0E94360BCE010E9401
:10452000360B8091CC07882349F08091BF0790918A
:10453000C007C817D90711F40E94900FDF91CF91DF
:104540001F910F9108954F925F926F927F928F9279
:104550009F92AF92BF92CF92DF92EF92FF920F9312
:104560001F93CF93DF932C014B015A013901CA01EC
:104570000E94710BEC010097B1F086E290E00E947E
:10458000710B6C01009761F086E2D6011D928A954D
:10459000E9F7F601D08FC78B8114910431F417C06D
:1045A000CE010E94360B8FEFE7C0F401D60190E0F8
:1045B000808159968C9359978081882329F09F5F39
:1045C000319611969830A1F7D60190961C9206303C
:1045D00008F005E0F601068B52E0852E912C8C0C3C
:1045E0009D1CC4010E945A0CC6010C960E945A0CD4
:1045F000D6011996DC92CE92189786E090E0801B47
:1046000091091D969C938E931C975396DC92CE92A3
:1046100052970894A108B108CE018A0D9B1DB201E2
:10462000A3010E94B20EF60191838083E114F1048C
:1046300019F0D701CD92DC920FB6F8940F928091C9
:10464000CB078F5F8093CB078091BF079091C00706
:10465000892B79F5D092C007C092BF078091CB0714
:104660008130C1F5C1EDD7E0CE010E944A0C2996F8
:10467000B8E0C730DB07C1F747E0E42E48E0F42E8E
:10468000C7010E944A0C00E118E0C8010E944A0CD0
:104690008DE198E00E944A0C86E298E00E944A0C64
:1046A000F0921A08E092190810931C0800931B0856
:1046B00011C08091CC07882369F4E091BF07F09185
:1046C000C0079689F6018689891720F0D092C00725
:1046D000C092BF078091D0078F5F8093D007D6012B
:1046E00056969C918091C207891710F49093C20747
:1046F000892F90E0FC0133E0EE0FFF1F3A95E1F7C0
:10470000E80FF91FEF52F84FA181B281F601B5838E
:10471000A48314968D919C91159797838683149604
:10472000ED91FC9115979382828215969C928E92C0
:104730001497D6015696EC91569789E0E89FF001C0
:104740001124EF52F84F1B96FC93EE931A97808139
:104750008F5F80830F900FBE8091CC07882359F024
:10476000E091BF07F091C0079689F60186899817F6
:1047700010F40E94900F81E0DF91CF911F910F9173
:10478000FF90EF90DF90CF90BF90AF909F908F9071
:104790007F906F905F904F900895EF92FF920F93EC
:1047A00082E092E267EC70E04AEF50E020E030E017
:1047B00000E0EDECEE2EE7E0FE2E0E94A322813019
:1047C00081F4F8948FEF9FEF9093C7078093C6070B
:1047D00081E08093CC071092C5071092C4070E9415
:1047E000FA0E8091D6010F91FF90EF900895AA1BC9
:1047F000BB1B51E107C0AA1FBB1FA617B70710F0CC
:10480000A61BB70B881F991F5A95A9F780959095FD
:10481000BC01CD010895A1E21A2EAA1BBB1BFD010C
:104820000DC0AA1FBB1FEE1FFF1FA217B307E4078F
:10483000F50720F0A21BB30BE40BF50B661F771FE7
:10484000881F991F1A9469F76095709580959095C7
:104850009B01AC01BD01CF0108952F923F924F9271
:104860005F926F927F928F929F92AF92BF92CF9200
:10487000DF92EF92FF920F931F93CF93DF93CDB709
:10488000DEB7CA1BDB0B0FB6F894DEBF0FBECDBF81
:1048900009942A88398848885F846E847D848C8452
:1048A0009B84AA84B984C884DF80EE80FD800C815B
:1048B0001B81AA81B981CE0FD11D0FB6F894DEBF3E
:1048C0000FBECDBFED010895FB01DC0102C00190D8
:1048D0000D9241505040D8F70895DC0101C06D930E
:0C48E00041505040E0F70895F894FFCFDD
:1048EC000C006C6564206973206F6E0D006C656440
:1048FC00206973206F66660D00646F6F7220697398
:10490C00206F70656E0D00646F6F72206973206389
:10491C006C6F736564000D0074656D703A006C65A6
:10492C0064206973206F6E006C6564206973206F5E
:10493C0066660074656D703A2000646F6F72206952
:10494C0073206F70656E0049444C450000000000F8
:10495C00000000000001020203030303040404042A
:10496C0004040404050505050505050505050505EF
:10497C0005050505060606060606060606060606CF
:10498C0006060606060606060606060606060606BB
:10499C00060606060707070707070707070707079F
:1049AC00070707070707070707070707070707078B
:1049BC00070707070707070707070707070707077B
:1049CC00070707070707070707070707070707076B
:1049DC00070707070808080808080808080808084F
:1049EC00080808080808080808080808080808083B
:1049FC00080808080808080808080808080808082B
:104A0C00080808080808080808080808080808081A
:104A1C00080808080808080808080808080808080A
:104A2C0008080808080808080808080808080808FA
:104A3C0008080808080808080808080808080808EA
:104A4C0008080808080808080808080808080808DA
:084A5C0008080808DB0505004D
:00000001FF
